:100000000C9462000C948A000C948A000C948A0070
:100010000C948A000C948A000C948A000C948A0038
:100020000C948A000C948A000C948A000C948A0028
:100030000C948A000C948A000C948A000C948A0018
:100040000C9490030C948A000C945E030C94380377
:100050000C948A000C948A000C948A000C948A00F8
:100060000C948A000C948A00000000080002010031
:100070000003040700000000000000000000000072
:10008000250028002B0000000000240027002A0083
:1000900000000000230026002900040404040404D6
:1000A0000404020202020202030303030303010227
:1000B00004081020408001020408102001020408F6
:1000C00010206C0511241FBECFEFD8E0DEBFCDBFDE
:1000D00011E0A0E0B1E0EEEFFFE002C005900D926C
:1000E000A035B107D9F721E0A0E5B1E001C01D922C
:1000F000AE3FB207E1F710E0C2E6D0E004C02197BE
:10010000FE010E94F707C136D107C9F70E941F04FC
:100110000C94FD070C940000AF92BF92CF92DF9237
:10012000EF92FF920F931F93CF93DF936C017B01AC
:100130008B01040F151FEB015E01AE18BF08C0173D
:10014000D10759F06991D601ED91FC910190F081B0
:10015000E02DC6010995892B79F7C501DF91CF9173
:100160001F910F91FF90EF90DF90CF90BF90AF90D5
:100170000895FC01538D448D252F30E0842F90E0AD
:10018000821B930B541710F0CF9608950197089592
:10019000FC01918D828D981761F0A28DAE0FBF2F5B
:1001A000B11D5D968C91928D9F5F9F73928F90E0B1
:1001B00008958FEF9FEF0895FC01918D828D981720
:1001C00031F0828DE80FF11D858D90E008958FEF5D
:1001D0009FEF0895FC01918D228D892F90E0805C26
:1001E0009F4F821B91098F739927089581E691E0B3
:1001F0000E94EA0021E0892B09F420E0822F089573
:1002000080E090E0892B29F00E94F60081110C9487
:1002100000000895FC01A48DA80FB92FB11DA35AA9
:10022000BF4F2C91848D90E001968F739927848F16
:10023000A689B7892C93A089B1898C918370806439
:100240008C93938D848D981306C00288F389E02DDA
:1002500080818F7D80830895EF92FF920F931F938B
:10026000CF93DF93EC0181E0888F9B8D8C8D981369
:100270001AC0E889F989808185FF15C09FB7F89475
:10028000EE89FF896083E889F989808183708064C1
:1002900080839FBF81E090E0DF91CF911F910F910C
:1002A000FF90EF900895F62E0B8D10E00F5F1F4F1B
:1002B0000F731127E02E8C8D8E110CC00FB607FC2A
:1002C000FACFE889F989808185FFF5CFCE010E94B8
:1002D0000A01F1CFEB8DEC0FFD2FF11DE35AFF4F1B
:1002E000F0829FB7F8940B8FEA89FB898081806246
:1002F000CFCF682F81E691E00C942C01CF93DF9350
:10030000EC01888D8823B9F0AA89BB89E889F9892D
:100310008C9185FD03C0808186FD0DC00FB607FC62
:10032000F7CF8C9185FFF2CF808185FFEDCFCE0195
:100330000E940A01E9CFDF91CF91089590E0FC017E
:10034000E859FF4F2491FC01E255FF4F3491FC0125
:10035000E656FF4FE491EE23C9F0222339F0233013
:1003600001F1A8F4213019F1223029F1F0E0EE0F6B
:10037000FF1FE458FF4FA591B4918FB7F894EC910B
:10038000611126C030953E233C938FBF08952730DE
:10039000A9F02830C9F0243049F7809180008F7D82
:1003A00003C0809180008F7780938000DFCF84B579
:1003B0008F7784BDDBCF84B58F7DFBCF8091B0007C
:1003C0008F778093B000D2CF8091B0008F7DF9CF2E
:1003D0003E2BDACF3FB7F8948091550190915601AA
:1003E000A0915701B091580126B5A89B05C02F3F99
:1003F00019F00196A11DB11D3FBFBA2FA92F982F4B
:100400008827BC01CD01620F711D811D911D42E045
:10041000660F771F881F991F4A95D1F70895FC0131
:1004200001900020E9F73197AF01481B590BBC013F
:1004300081E691E00C948C008F929F92AF92BF92D4
:100440000F931F93CF93DF93CDB7DEB7A1970FB66E
:10045000F894DEBF0FBECDBF19A2423008F44AE0C7
:100460008E010F5D1F4F842E912CB12CA12CA50164
:1004700094010E94D507E62FB901CA01EA30F4F4CD
:10048000E05DD801EE938D01232B242B252B79F7EA
:1004900090E080E0109719F0CD010E940F02A19624
:1004A0000FB6F894DEBF0FBECDBFDF91CF911F9185
:1004B0000F91BF90AF909F908F900895E95CE1CF2E
:1004C0004F925F926F927F928F929F92AF92BF9264
:1004D000CF92DF92EF92FF920F931F93CF936B0116
:1004E0007C01742EAC019B010E94D007882399F0F7
:1004F00082E191E0CF911F910F91FF90EF90DF90FB
:10050000CF90BF90AF909F908F907F906F905F90B3
:100510004F900C940F0246015701E894B7F82FEF63
:100520003FEF4FE75FE7C501B4010E94D00781119B
:100530000DC02FEF3FEF4FE75FE7C501B4010E9409
:10054000060618161CF486E191E0D4CF2FEF3FEF9A
:100550004FE75FE4C701B6010E945E0718161CF45E
:100560008AE191E0C7CF2FEF3FEF4FE75FECC70184
:10057000B6010E94060687FDF3CF20E030E0A90116
:10058000C701B6010E94060610E000E087FF08C020
:100590008DE20E9479018C01F7FAF094F7F8F0945B
:1005A000C0E060E070E080E09FE37C1641F020E076
:1005B00030E040E251E40E940B06CF5FF6CFA70186
:1005C00096010E949A052B013C010E947D064B0179
:1005D0005C014AE00E941C027C01E00EF11ECC236B
:1005E000B1F1C501B4010E94AC069B01AC01C3018D
:1005F000B2010E9499054B015C018EE20E947901D3
:10060000E80EF91EC15018F120E030E040E251E45C
:10061000C501B4010E9463072B013C010E947D06C5
:100620004B01B12CA12C4AE0C501B4010E941C026F
:10063000E80EF91EC501B4010E94AC069B01AC0195
:10064000C301B2010E9499054B015C01DBCFC701D8
:10065000CF911F910F91FF90EF90DF90CF90BF90BF
:10066000AF909F908F907F906F905F904F90089584
:100670001F920F920FB60F9211242F933F934F9317
:100680005F936F937F938F939F93AF93BF93EF93FA
:10069000FF9381E691E00E940A01FF91EF91BF91E3
:1006A000AF919F918F917F916F915F914F913F910A
:1006B0002F910F900FBE0F901F9018951F920F92C1
:1006C0000FB60F9211242F938F939F93EF93FF9365
:1006D000E0917101F09172018081E0917701F091D8
:1006E000780182FD1BC0908180917A018F5F8F73AA
:1006F00020917B01821741F0E0917A01F0E0EF59FF
:10070000FE4F958F80937A01FF91EF919F918F918A
:100710002F910F900FBE0F901F9018958081F4CFEE
:100720001F920F920FB60F9211242F933F938F9326
:100730009F93AF93BF938091510190915201A091EB
:100740005301B09154013091500123E0230F2D3714
:1007500058F50196A11DB11D2093500180935101C0
:1007600090935201A0935301B0935401809155018D
:1007700090915601A0915701B09158010196A11D89
:10078000B11D8093550190935601A0935701B093EA
:100790005801BF91AF919F918F913F912F910F90F1
:1007A0000FBE0F901F90189526E8230F0296A11DEB
:1007B000B11DD2CFCF92DF92EF92FF920F931F9392
:1007C000E82FF92F05C0015011092109310961F104
:1007D000908196239417B9F305C00150110921099E
:1007E000310911F1908196239413F7CFC12CD12CAC
:1007F000E12CF12C0AC08FEFC81AD80AE80AF80ACF
:100800000C151D052E053F0579F080818623841780
:1008100091F36C2D7D2D8E2D9F2D1F910F91FF90AB
:10082000EF90DF90CF90089560E070E080E090E07E
:100830001F910F91FF90EF90DF90CF9008957894E3
:1008400084B5826084BD84B5816084BD85B58260D5
:1008500085BD85B5816085BD80916E008160809386
:100860006E001092810080918100826080938100EF
:1008700080918100816080938100809180008160FF
:10088000809380008091B10084608093B10080915A
:10089000B00081608093B00080917A008460809382
:1008A0007A0080917A00826080937A0080917A0049
:1008B000816080937A0080917A00806880937A00CA
:1008C0001092C100E5EBF0E02491E1EAF0E08491C0
:1008D000882399F090E0880F991FFC01EA57FF4F99
:1008E000A591B491FC01E458FF4F859194918FB785
:1008F000F894EC91E22BEC938FBFC4EBD0E0FE01B7
:10090000249140EAE42E40E0F42EF70184918823FC
:10091000C9F090E0880F991FFC01EA57FF4FA5919D
:10092000B491FC01E458FF4F459154913FB7F894BE
:100930009C91822F809598239C93FA019081892322
:1009400080833FBFE0917101F091720182E080836A
:10095000E0916D01F0916E011082E0916F01F091D4
:1009600070018FEC808310927901E0917501F09114
:10097000760186E08083E0917301F09174018081BB
:1009800080618083E0917301F091740180818860BF
:100990008083E0917301F09174018081806880838D
:1009A000E0917301F091740180818F7D808390E0EC
:1009B000C92E90E0D92E61E087E00E949E010E943E
:1009C000EA0160E087E00E949E01FE016491F70168
:1009D0008491E82FF0E0EE0FFF1FE057FF4F859165
:1009E000949100E412E42FE030E0462F0E94DA03F5
:1009F000611571058105910529F06F5F7F4F8F4F5C
:100A00009F4F9F700E94AC0629EB3CEF47E05DE3EF
:100A10000E94630720E030E040E05FE30E9463074C
:100A200060935D0170935E0180935F01909360011C
:100A30008EE191E00E940F024AE06CE271E080E0FA
:100A400090E00E941C028AE00E94790110925901F4
:100A500010925A0110925B0110925C018FE291E0BA
:100A60000E940F024AE06EE571E080E090E00E9493
:100A70001C028AE00E9479018CE391E00E940F023F
:100A800060915D0170915E0180915F0190916001C4
:100A900042E00E9460028AE00E94790183E491E0D2
:100AA0000E940F026091590170915A0180915B017F
:100AB00090915C0142E00E9460028AE00E9479010C
:100AC000C114D10409F477CF0E94F600882309F4F9
:100AD00072CF0E9400006FCFE1E6F1E01382128234
:100AE00088EE93E0A0E0B0E084839583A683B7838B
:100AF00084E091E09183808385EC90E09587848702
:100B000084EC90E09787868780EC90E0918B808BD7
:100B100081EC90E0938B828B82EC90E0958B848BC0
:100B200086EC90E0978B868B118E128E138E148E2E
:100B300008955058BB27AA270E94B1050C9424079A
:100B40000E94160738F00E941D0720F039F49F3FDD
:100B500019F426F40C9413070EF4E095E7FB0C94BB
:100B60000D07E92F0E94350758F3BA17620773077C
:100B70008407950720F079F4A6F50C9457070EF436
:100B8000E0950B2EBA2FA02D0B01B90190010C019D
:100B9000CA01A0011124FF27591B99F0593F50F4B5
:100BA000503E68F11A16F040A22F232F342F44270D
:100BB000585FF3CF469537952795A795F040539505
:100BC000C9F77EF41F16BA0B620B730B840BBAF0D5
:100BD0009150A1F0FF0FBB1F661F771F881FC2F740
:100BE0000EC0BA0F621F731F841F48F48795779554
:100BF0006795B795F7959E3F08F0B0CF9395880F0E
:100C000008F09927EE0F9795879508950E94E906B9
:100C100008F481E008950E941F060C9424070E94A6
:100C20001D0758F00E94160740F029F45F3F29F095
:100C30000C940D0751110C9458070C9413070E9443
:100C4000350768F39923B1F3552391F3951B550BA1
:100C5000BB27AA2762177307840738F09F5F5F4F8F
:100C6000220F331F441FAA1FA9F335D00E2E3AF0CE
:100C7000E0E832D091505040E695001CCAF72BD0E6
:100C8000FE2F29D0660F771F881FBB1F2617370737
:100C90004807AB07B0E809F0BB0B802DBF01FF2769
:100CA00093585F4F3AF09E3F510578F00C940D0732
:100CB0000C9458075F3FE4F3983ED4F386957795FC
:100CC0006795B795F7959F5FC9F7880F911D969522
:100CD000879597F90895E1E0660F771F881FBB1F7E
:100CE000621773078407BA0720F0621B730B840B2B
:100CF000BA0BEE1F88F7E09508950E943D0788F033
:100D00009F5798F0B92F9927B751B0F0E1F0660FCF
:100D1000771F881F991F1AF0BA95C9F714C0B13010
:100D200091F00E945707B1E008950C945707672F80
:100D3000782F8827B85F39F0B93FCCF3869577953F
:100D40006795B395D9F73EF4909580957095619528
:100D50007F4F8F4F9F4F0895E89409C097FB3EF453
:100D600090958095709561957F4F8F4F9F4F9923F8
:100D7000A9F0F92F96E9BB279395F6958795779576
:100D80006795B795F111F8CFFAF4BB0F11F460FF36
:100D90001BC06F5F7F4F8F4F9F4F16C0882311F08E
:100DA00096E911C0772321F09EE8872F762F05C0A2
:100DB000662371F096E8862F70E060E02AF09A953D
:100DC000660F771F881FDAF7880F9695879597F932
:100DD0000895990F0008550FAA0BE0E8FEEF1616CC
:100DE0001706E807F907C0F012161306E407F5071F
:100DF00098F0621B730B840B950B39F40A2661F093
:100E0000232B242B252B21F408950A2609F4A14035
:100E1000A6958FEF811D811D089597F99F6780E842
:100E200070E060E008959FEF80EC089500240A943C
:100E30001616170618060906089500240A941216B5
:100E40001306140605060895092E0394000C11F4E8
:100E5000882352F0BB0F40F4BF2B11F460FF04C095
:100E60006F5F7F4F8F4F9F4F089557FD9058440FEE
:100E7000551F59F05F3F71F04795880F97FB991FF9
:100E800061F09F3F79F087950895121613061406B6
:100E9000551FF2CF4695F1DF08C016161706180643
:100EA000991FF1CF86957105610508940895E8941E
:100EB000BB2766277727CB0197F908950E94E9069B
:100EC00008F48FEF08950E9476070C9424070E947F
:100ED000160738F00E941D0720F0952311F00C949E
:100EE0000D070C94130711240C9458070E94350722
:100EF00070F3959FC1F3950F50E0551F629FF0016D
:100F0000729FBB27F00DB11D639FAA27F00DB11D85
:100F1000AA1F649F6627B00DA11D661F829F22270E
:100F2000B00DA11D621F739FB00DA11D621F839F95
:100F3000A00D611D221F749F3327A00D611D231F6B
:100F4000849F600D211D822F762F6A2F11249F57B9
:100F500050409AF0F1F088234AF0EE0FFF1FBB1FBC
:100F6000661F771F881F91505040A9F79E3F51057B
:100F700080F00C940D070C9458075F3FE4F3983E03
:100F8000D4F3869577956795B795F795E7959F5F25
:100F9000C1F7FE2B880F911D9695879597F90895B7
:100FA0000E94E906880B990B0895A1E21A2EAA1B4C
:100FB000BB1BFD010DC0AA1FBB1FEE1FFF1FA21709
:100FC000B307E407F50720F0A21BB30BE40BF50B06
:100FD000661F771F881F991F1A9469F7609570958F
:100FE000809590959B01AC01BD01CF010895EE0F56
:0E0FF000FF1F0590F491E02D0994F894FFCFB7
:100FFE00000000002C018C00B9007E01EA00C80040
:10100E00DC006E616E00696E66006F76660061765A
:10101E0061696C61626C655F77617465723D0074C5
:10102E00616E6B5F6C6F616465643D0053706163EC
:10103E00653D0054616E6B204C6F616465643D00CC
:00000001FF
