:100000000C945D000C9485000C9485000C94850084
:100010000C9485000C9485000C9485000C94CC0401
:100020000C9485000C9485000C9485000C9485003C
:100030000C9485000C9485000C9485000C9485002C
:100040000C9482040C9485000C9450040C942A04A3
:100050000C9485000C9485000C9485000C9485000C
:100060000C9485000C94850000000008000201003B
:100070000003040700000000000000000000000072
:10008000250028002B0000000000240027002A0083
:10009000040404040404040402020202020203032E
:1000A0000303030301020408102040800102040836
:1000B0001020010204081020990611241FBECFEF62
:1000C000D8E0DEBFCDBF11E0A0E0B1E0EAE6F0E1AC
:1000D00002C005900D92A833B107D9F722E0A8E33A
:1000E000B1E001C01D92A931B207E1F710E0CDE502
:1000F000D0E004C02197FE010E942D08CC35D10725
:10010000C9F70E94E3060C9433080C94000090E0B9
:10011000FC01EC55FF4F249180579F4FFC018491C7
:10012000882399F090E0880F991FFC01EA57FF4F50
:10013000A591B491FC01E458FF4F859194918FB73C
:10014000F894EC91E22BEC938FBF0895AF92BF929D
:10015000CF92DF92EF92FF920F931F93CF93DF9393
:100160006C017B018B01040F151FEB015E01AE18C2
:10017000BF08C017D10759F06991D601ED91FC91E4
:100180000190F081E02DC6010995892B79F7C50111
:10019000DF91CF911F910F91FF90EF90DF90CF9063
:1001A000BF90AF900895FC01538D448D252F30E012
:1001B000842F90E0821B930B541710F0CF96089574
:1001C00001970895FC01918D828D981761F0A28DA1
:1001D000AE0FBF2FB11D5D968C91928D9F5F9F7367
:1001E000928F90E008958FEF9FEF0895FC01918D1D
:1001F000828D981731F0828DE80FF11D858D90E08A
:1002000008958FEF9FEF0895FC01918D228D892F26
:1002100090E0805C9F4F821B91098F73992708950E
:1002200084E691E00E94040121E0892B09F420E09A
:10023000822F089580E090E0892B29F00E94100120
:1002400081110C9400000895FC01A48DA80FB92F12
:10025000B11DA35ABF4F2C91848D90E001968F73EE
:100260009927848FA689B7892C93A089B1898C910D
:10027000837080648C93938D848D981306C002885C
:10028000F389E02D80818F7D80830895EF92FF9226
:100290000F931F93CF93DF93EC0181E0888F9B8DA9
:1002A0008C8D98131AC0E889F989808185FF15C063
:1002B0009FB7F894EE89FF896083E889F989808186
:1002C0008370806480839FBF81E090E0DF91CF9155
:1002D0001F910F91FF90EF900895F62E0B8D10E077
:1002E0000F5F1F4F0F731127E02E8C8D8E110CC0E6
:1002F0000FB607FCFACFE889F989808185FFF5CF31
:10030000CE010E942401F1CFEB8DEC0FFD2FF11DEA
:10031000E35AFF4FF0829FB7F8940B8FEA89FB896D
:1003200080818062CFCFCF93DF93EC01888D8823CB
:10033000B9F0AA89BB89E889F9898C9185FD03C048
:10034000808186FD0DC00FB607FCF7CF8C9185FF2D
:10035000F2CF808185FFEDCFCE010E942401E9CF4D
:10036000DF91CF91089590E0FC01E859FF4F24916F
:10037000FC01EC55FF4F3491FC01E057FF4FE49135
:10038000EE23C9F0222339F0233001F1A8F4213003
:1003900019F1223029F1F0E0EE0FFF1FE458FF4F72
:1003A000A591B4918FB7F894EC91611126C0309566
:1003B0003E233C938FBF08952730A9F02830C9F021
:1003C000243049F7809180008F7D03C080918000A8
:1003D0008F7780938000DFCF84B58F7784BDDBCFAC
:1003E00084B58F7DFBCF8091B0008F778093B00074
:1003F000D2CF8091B0008F7DF9CF3E2BDACF3FB7BF
:10040000F89480915B0190915C01A0915D01B091A5
:100410005E0126B5A89B05C02F3F19F00196A11DCE
:10042000B11D3FBFBA2FA92F982F8827BC01CD013E
:10043000620F711D811D911D42E0660F771F881F9D
:10044000991F4A95D1F708958F929F92AF92BF92CC
:10045000CF92DF92EF92FF924B015C010E94FF016D
:100460006B017C010E94FF016C197D098E099F09B7
:10047000683E734081059105A8F321E0821A910836
:10048000A108B10888EEC80E83E0D81EE11CF11C5B
:1004900081149104A104B10429F7FF90EF90DF903B
:1004A000CF90BF90AF909F908F900895089590E067
:1004B00080E00895CF93DF93EC0160E08E810E948D
:1004C000B30161E08E810E94B30160E08E810E94E1
:1004D000B3018BE891E00197F1F7DF91CF91089597
:1004E000CF92DF92EF92FF920F931F93CF93DF9300
:1004F0006C017C0187E0E80EF11CD0E0C0E0062F23
:1005000010E0B8010C2E02C0759567950A94E2F7C9
:100510006170F70181917F010E94B3012196C4307F
:10052000D10579F7C601DF91CF911F910F91FF900F
:10053000EF90DF90CF900C945A02CF92DF92EF921F
:10054000FF920F931F93CF93DF93EC01F62E642F4E
:100550008C810E94B3018D818F3F19F060E00E9471
:10056000B3010F2D10E08F8584FF25C06E0187E059
:10057000C80ED11CF12CE12CB8010E2C02C07595CF
:1005800067950A94E2F76170F60181916F010E940C
:10059000B301FFEFEF1AFF0A88E0E816F10461F7F4
:1005A000CE01DF91CF911F910F91FF90EF90DF90DF
:1005B000CF900C945A02B80184E0759567958A959E
:1005C000E1F7CE010E9470026F2DCE01DF91CF9135
:1005D0001F910F91FF90EF90DF90CF900C947002DD
:1005E00040E0682F81E092E00C949D0281E00E943F
:1005F000F0028BE39FE10197F1F70895CF93DF932A
:10060000823029F4909110029860909310028093A8
:1006100014021092150280E48093160280E1809308
:10062000170280E580931802809105020E948700DE
:10063000809106028F3F11F00E948700809107028F
:100640000E948700C1E0D2E09E012150324080919B
:10065000100284FD0AC084E090E021962817390733
:100660003CF48E810E948700EFCF88E090E0F5CFC8
:100670008BE39DE00197F1F760E0809105020E9415
:10068000B30160E0809107020E94B30180910602ED
:100690008F3F19F060E00E94B3018091100284FD49
:1006A00034C063E081E092E00E947002CBE4D6E4C3
:1006B000CE010197F1F763E081E092E00E947002C1
:1006C0002197F1F763E081E092E00E94700283E5F8
:1006D00092E00197F1F762E081E092E00E947002FF
:1006E0008091100280620E94F00284E080931102E7
:1006F0008CE00E94F0020E94F60282E080931202D7
:1007000086E0DF91CF910C94F00280620E94F002AB
:100710008BE496E40197F1F78091100280620E94C9
:10072000F00283E592E00197F1F780911002806278
:100730000E94F002D5CF41E00E949D0281E090E04E
:100740000895FB0101900020E9F73197AF01461BA6
:10075000570BDC01ED91FC910280F381E02D0994AF
:100760008F929F92AF92BF92EF92FF920F931F933F
:10077000CF93DF93CDB7DEB7A1970FB6F894DEBF66
:100780000FBECDBF7C01FA01CB0119A2223008F4C3
:100790002AE08E010F5D1F4F822E912CB12CA12CCF
:1007A000BF01A50194010E94E307F901CA016A3063
:1007B0000CF5605DD8016E938D01232B242B252B26
:1007C00079F790E080E0109721F0BD01C7010E9409
:1007D000A103A1960FB6F894DEBF0FBECDBFDF9187
:1007E000CF911F910F91FF90EF90BF90AF909F908E
:1007F0008F900895695CDECFCF92DF92EF92FF92E7
:100800006B01682F84E691E00E9446010D2C000CDC
:10081000EE08FF082AE0B701A601F7FE0DC06DE261
:1008200084E691E00E94460144275527BA014C19FD
:100830005D096E097F092AE084E691E00E94B00319
:1008400069E271E084E691E0FF90EF90DF90CF9055
:100850000C94A1031F920F920FB60F9211242F93A5
:100860003F934F935F936F937F938F939F93AF9338
:10087000BF93EF93FF9384E691E00E942401FF91E0
:10088000EF91BF91AF919F918F917F916F915F9108
:100890004F913F912F910F900FBE0F901F90189581
:1008A0001F920F920FB60F9211242F938F939F9345
:1008B000EF93FF93E0917401F09175018081E091D5
:1008C0007A01F0917B0182FD1BC0908180917D01B6
:1008D0008F5F8F7320917E01821741F0E0917D013F
:1008E000F0E0EC59FE4F958F80937D01FF91EF91E1
:1008F0009F918F912F910F900FBE0F901F90189581
:100900008081F4CF1F920F920FB60F9211242F9374
:100910003F938F939F93AF93BF9380915701909193
:100920005801A0915901B0915A013091560123E02C
:10093000230F2D3758F50196A11DB11D20935601A7
:100940008093570190935801A0935901B0935A0195
:1009500080915B0190915C01A0915D01B0915E017D
:100960000196A11DB11D80935B0190935C01A09342
:100970005D01B0935E01BF91AF919F918F913F91C7
:100980002F910F900FBE0F901F90189526E8230F00
:100990000296A11DB11DD2CF1F920F920FB60F92DA
:1009A00011242F933F934F935F936F937F938F9374
:1009B0009F93AF93BF93CF93DF93EF93FF93F894FD
:1009C00080E480937C0080917A00806480937A0038
:1009D00080917A0086FDFCCF90917800809179001B
:1009E0008927982789279093600180935F018091E0
:1009F000520190915301A0915401B091550102967A
:100A0000A11DB11D8093520190935301A0935401F5
:100A1000B09355014091520150915301609154019E
:100A20007091550180914E0190914F01A09150011C
:100A3000B0915101EA01C81BD90B20915F0130919F
:100A400060018091070190910801281739071CF572
:100A50008091090190910A0165E070E00E941908F7
:100A6000CB01880F991F680F791F6C177D079CF4C5
:100A700020915F0130916001809105019091060104
:100A80002817390744F480915F0190916001909399
:100A900006018093050120915F01309160018091F2
:100AA000070190910801821793079CF420915F0140
:100AB00030916001809103019091040182179307A6
:100AC00044F480915F0190916001909304018093C0
:100AD0000301CB3FD1050CF4BFC020915F013091E1
:100AE00060018091070190910801821793070CF033
:100AF000B3C080914D018111AFC0809109019091E7
:100B00000A0165E070E00E941908CB01880F991F67
:100B1000680F791F6C177D070CF09EC081E08093F1
:100B20004D0161E08DE00E94B301809152019091EE
:100B30005301A0915401B091550140914E01509143
:100B40004F016091500170915101841B950B90935E
:100B50000A01809309018091520190915301A09163
:100B60005401B091550180934E0190934F01A09391
:100B70005001B093510180914C01882399F010925B
:100B80004C0190E080E02091090130910A01FC01C4
:100B9000EE0FFF1FE85CFE4F3183208301968A3001
:100BA000910589F7809102018823C9F01092020112
:100BB00081E080934C017894FF91EF91DF91CF9188
:100BC000BF91AF919F918F917F916F915F914F9165
:100BD0003F912F910F900FBE0F901F90189530E00E
:100BE00020E050E040E0C9010196FC01EE0FFF1F3C
:100BF000E85CFE4F60817181220F331FF901E85CD0
:100C0000FE4F7183608320813181420F531F9C010D
:100C1000099749F78091090190910A0190934B013E
:100C200080934A0180914A0190914B01840F951F56
:100C30006AE070E00E9405089B0150E040E060E639
:100C40007AEE80E090E00E94C40730936201209326
:100C5000610181E08093630120915F013091600127
:100C6000809107019091080128173907D4F58091E8
:100C70004D018823B1F160E08DE00E94B301109234
:100C80004D01809103019091040120910501309163
:100C90000601821B930B90930101809300018091C8
:100CA000000190910101209105013091060197FD0D
:100CB000019695958795820F931F909308018093D5
:100CC000070180910701909108019093040180939E
:100CD0000301809107019091080190930601809390
:100CE0000501C53CD9400CF466CF80E092E09093BA
:100CF000080180930701909304018093030190936E
:100D00000601809305018091520190915301A091B9
:100D10005401B091550180934E0190934F01A093DF
:100D20005001B093510181E08093020110924C0177
:100D300042CFE4E6F1E01382128288EE93E0A0E075
:100D4000B0E084839583A683B7838FE091E091839D
:100D5000808385EC90E09587848784EC90E097878A
:100D6000868780EC90E0918B808B81EC90E0938B78
:100D7000828B82EC90E0958B848B86EC90E0978B55
:100D8000868B118E128E138E148EE1E0F2E01382A8
:100D9000128281E291E09183808389E084838FEFE6
:100DA000858388E0868387E0878386E0808785E087
:100DB000818784E0828713861486158616861786B7
:100DC00081E00C94FE02789484B5826084BD84B581
:100DD000816084BD85B5826085BD85B5816085BD36
:100DE00080916E00816080936E00109281008091EE
:100DF0008100826080938100809181008160809376
:100E00008100809180008160809380008091B1009A
:100E100084608093B1008091B00081608093B000C5
:100E200080917A00846080937A0080917A00826059
:100E300080937A0080917A00816080937A0080911B
:100E40007A00806880937A001092C1008DE00E9441
:100E50008700E0917401F091750182E08083E09158
:100E60007001F09171011082E0917201F0917301B3
:100E700090E1908310927C01E0917801F0917901EA
:100E800026E02083E0917601F091770190819061D6
:100E90009083E0917601F091770190819860908342
:100EA000E0917601F0917701908190689083E091D4
:100EB0007601F091770190819F7D90838093B000BF
:100EC0002093B1009CE79093B300809370007894D6
:100ED0000E94FE020E94F602C0E0D0E080915F0115
:100EE00090916001809163018823E9F10E94F602EC
:100EF000E1E0809114028111E0E0E195F0E0EF5F24
:100F0000FD4F84898E5F80680E94F0026CE271E080
:100F100081E092E00E94A103C0906101D090620143
:100F20000D2C000CEE08FF082AE0B701A601F7FE21
:100F30000EC041E06DE281E092E00E949D024427F4
:100F40005527BA014C195D096E097F092AE081E035
:100F500092E00E94B0036EE170E080E090E00E94B9
:100F600024021092630164E170E080E090E00E944E
:100F70002402209709F4B2CF0E941001882309F4BB
:100F8000ADCF0E940000AACF052E97FB1EF400945F
:100F90000E94DB0757FD07D00E94E30707FC03D040
:100FA0004EF40C94DB0750954095309521953F4FBA
:100FB0004F4F5F4F089590958095709561957F4F45
:100FC0008F4F9F4F0895A1E21A2EAA1BBB1BFD0154
:100FD0000DC0AA1FBB1FEE1FFF1FA217B307E40718
:100FE000F50720F0A21BB30BE40BF50B661F771F70
:100FF000881F991F1A9469F7609570958095909550
:101000009B01AC01BD01CF010895AA1BBB1B51E19F
:1010100007C0AA1FBB1FA617B70710F0A61BB70B68
:10102000881F991F5A95A9F780959095BC01CD010D
:10103000089597FB072E16F4009407D077FD09D08A
:101040000E94050807FC05D03EF4909581959F4FBE
:101050000895709561957F4F0895EE0FFF1F0590DD
:0A106000F491E02D0994F894FFCFFD
:10106A00640001000200020D02580200000000465E
:10107A0001A600D30093010401E200F6000000007B
:10108A00009B03A600570256020D0A0048656172CA
:08109A007420526174653A00F4
:00000001FF
